:100000000C944D000C946C000C946C000C946C00DF
:100010000C946C000C946C000C946C000C946C00B0
:100020000C946C000C946C000C946C000C946C00A0
:100030000C946C000C945A010C946C000C946C00A1
:100040000C946C000C946C000C946C000C946C0080
:100050000C946C000C946C000C946C000C946C0070
:100060000C946C000C946C000C946C000C946C0060
:100070000C946C000C946C000C946C000C946C0050
:100080000C946C000C946C000C946C001E032F03F9
:10009000440363038203A103C00311241FBECFEFF7
:1000A000D0E4DEBFCDBF11E0A0E0B1E0ECE0FBE0CA
:1000B00000E00BBF02C007900D92A231B107D9F743
:1000C00021E0A2E1B1E001C01D92A333B207E1F744
:1000D0000E942F040C9484050C940000CF93DF93AE
:1000E00000D01F92CDB7DEB789837B836A83898175
:1000F0008A3031F48A819B81BC018DE00E946E00C0
:1001000080EC90E0FC018081882F90E0807299273C
:10011000892BB1F386EC90E02981FC01208380E0FB
:1001200090E00F900F900F90DF91CF910895CF93B3
:10013000DF9300D01F92CDB7DEB789836A834B83EC
:100140008B81882371F08A81282F30E081E090E054
:1001500002C0880F991F2A95E2F7982F8981892B71
:100160000EC08A81282F30E081E090E002C0880F25
:10017000991F2A95E2F7982F9095898189230F90EE
:100180000F900F90DF91CF910895CF93DF9300D020
:10019000CDB7DEB789836A838A81282F30E081E07A
:1001A00090E002C0880F991F2A95E2F7982F898165
:1001B00089230F900F90DF91CF910895CF93DF9314
:1001C00000D000D0CDB7DEB769837A838B839C8360
:1001D00089819A81AB81BC8180930E0190930F013C
:1001E000A0931001B093110180910E0190910F0125
:1001F000A0911001B091110180931301909314010B
:10020000A0931501B093160100000F900F900F906E
:100210000F90DF91CF910895CF93DF93CDB7DEB7E5
:1002200081E890E02BE0FC01208388E890E02DE756
:1002300030E0FC01318320838FE690E022E0FC0176
:10024000208384E890E0FC011182108280910E01ED
:1002500090910F01A0911001B091110180931301B1
:1002600090931401A0931501B09316018FE590E0CF
:100270002FE530E0F90120812068FC012083000097
:10028000DF91CF910895CF93DF93CDB7DEB781E8AB
:1002900090E0FC0110820000DF91CF910895CF9390
:1002A000DF93CDB7DEB781E0809312010000DF91CC
:1002B000CF9108951F920F9200905F000F9211242A
:1002C00000905B000F922F933F934F935F936F9338
:1002D0007F938F939F93AF93BF93EF93FF93CF93AE
:1002E000DF93CDB7DEB78091130190911401A091F7
:1002F0001501B09116010197A109B109809313016D
:1003000090931401A0931501B093160180911301ED
:1003100090911401A0911501B0911601892B8A2B9F
:100320008B2B91F40E944F0180910E0190910F014F
:10033000A0911001B09111018093130190931401C9
:10034000A0931501B09316010000DF91CF91FF91AA
:10035000EF91BF91AF919F918F917F916F915F913D
:100360004F913F912F910F9000925B000F90009260
:100370005F000F901F901895CF93DF93CDB7DEB736
:100380002C970FB6F894DEBF0FBECDBF6D837E8372
:100390008F83988729873A874B875C878D819E81D9
:1003A000AF81B88529853A854B855C85BC01CD0137
:1003B0000E945905DC01CB0189839A83AB83BC83FE
:1003C00089819A81AB81BC81892B8A2B8B2B29F463
:1003D00089859A85AB85BC8511C089859A85AB8551
:1003E000BC858D839E83AF83B88789819A81AB81D9
:1003F000BC8189879A87AB87BC87D0CFBC01CD01F0
:100400002C960FB6F894DEBF0FBECDBFDF91CF9113
:1004100008950F931F93CF93DF93CDB7DEB708E214
:1004200010E040E064E08FEF0E949700F8018083C5
:10043000000086E290E0FC018081809560E00E94EF
:10044000C500882311F081E3D3C086E290E0FC016F
:100450008081809561E00E94C500882311F084E3CB
:10046000C7C086E290E0FC018081809562E00E9436
:10047000C500882311F087E3BBC086E290E0FC0151
:100480008081809563E00E94C500882311F08AE294
:10049000AFC008E210E040E065E08FEF0E949700F7
:1004A000F8018083000086E290E0FC018081809565
:1004B00060E00E94C500882311F082E399C086E2C3
:1004C00090E0FC018081809561E00E94C500882356
:1004D00011F085E38DC086E290E0FC01808180957B
:1004E00062E00E94C500882311F088E381C086E2A3
:1004F00090E0FC018081809563E00E94C500882324
:1005000011F080E375C008E210E040E066E08FEF94
:100510000E949700F8018083000086E290E0FC01D1
:100520008081809560E00E94C500882311F083E3FC
:100530005FC086E290E0FC018081809561E00E94CE
:10054000C500882311F086E353C086E290E0FC01E9
:100550008081809562E00E94C500882311F089E3C4
:1005600047C086E290E0FC018081809563E00E94B4
:10057000C500882311F083E23BC008E210E040E0B0
:1005800067E08FEF0E949700F8018083000086E209
:1005900090E0FC018081809560E00E94C500882386
:1005A00011F081E425C086E290E0FC018081809515
:1005B00061E00E94C500882311F082E419C086E240
:1005C00090E0FC018081809562E00E94C500882354
:1005D00011F083E40DC086E290E0FC0180818095FB
:1005E00063E00E94C500882311F084E401C080E02C
:1005F000DF91CF911F910F910895CF93DF9300D09A
:10060000CDB7DEB79A8389830E94090280931701D0
:1006100080912F0190913001CC01A0E0B0E040E04A
:1006200050E026E030E0841B950B2817390708F4CA
:10063000AEC08A5B9F4FFC010C947B058091170133
:10064000882F90E0839739F481E090E09093300117
:1006500080932F0103C01A82198200009DC08091EF
:100660001701882F90E0C19739F482E090E09093D1
:10067000300180932F0107C081E090E0909330011A
:1006800080932F01000088C080911701882F90E08F
:100690008332910549F0C29771F483E090E0909322
:1006A000300180932F010EC081E090E090933001E3
:1006B00080932F0107C082E090E0909330018093F7
:1006C0002F01000069C080911701882F90E08332CC
:1006D000910549F0C39771F484E090E09093300164
:1006E00080932F010EC081E090E0909330018093C1
:1006F0002F0107C083E090E09093300180932F0199
:1007000000004AC080911701882F90E08332910544
:1007100049F0C49771F485E090E0909330018093A4
:100720002F010EC081E090E09093300180932F0163
:1007300007C084E090E09093300180932F01000087
:100740002BC080911701882F90E08332910549F0EA
:10075000C59771F486E090E09093300180932F016B
:100760000EC081E090E09093300180932F0107C08C
:1007700085E090E09093300180932F0100000CC041
:1007800086E090E09093300180932F0105C0109295
:10079000300110922F01000080912F0190913001C3
:1007A000069721F481E08093180102C0109218018D
:1007B00089819A810F900F90DF91CF910895CF9307
:1007C000DF9300D0CDB7DEB79A8389838091310162
:1007D000909132018130910569F08130910518F0D6
:1007E0000297C9F01FC081E090E09093320180939E
:1007F00031011EC083E290E0FC0180818823BCF0BF
:100800001092300110922F0182E090E0909332011B
:10081000809331010CC081E090E09093320180938D
:10082000310106C0109232011092310101C0000066
:100830008091310190913201029709F003C010922A
:100840001801000085E290E020911801FC0120834E
:1008500089819A810F900F90DF91CF9108950F9326
:100860001F93CF93DF93CDB7DEB728970FB6F894D9
:10087000DEBF0FBECDBF84E290E02FE7FC012083F6
:1008800085E290E020E8FC01208387E290E020EF01
:10089000FC01208388E290E02FE0FC01208389E1C5
:1008A00091E09E838D8384E291E098878F8382E03C
:1008B00090E09C838B831092190182E390E0A0E08A
:1008C000B0E080931A0190931B01A0931C01B09398
:1008D0001D0180911A0190911B01A0911C01B09102
:1008E0001D0180931E0190931F01A0932001B093DE
:1008F00021018DEF92E090932301809322011092C9
:10090000240182E390E0A0E0B0E080932501909381
:100910002601A0932701B093280180912501909191
:100920002601A0912701B09128018093290190937D
:100930002A01A0932B01B0932C018FED93E09093AB
:100940002E0180932D0162E370E080E090E00E9430
:10095000DE000E940C011A8219829BC089819A8153
:10096000880F991F9E012F5F3F4F820F931F0496A0
:10097000FC0180819181FC01258136814781508570
:1009800089819A81880F991FBE016F5F7F4F860F03
:10099000971F0496FC0180819181FC0181819281E5
:1009A000A381B481281739074A075B0709F045C0BE
:1009B00089819A81880F991F9E012F5F3F4F820F77
:1009C000931F0496FC010081118189819A81880F0F
:1009D000991F9E012F5F3F4F820F931F0496FC01CA
:1009E00080819181FC012185328589819A81880FDE
:1009F000991FAE014F5F5F4F840F951F0496FC0156
:100A000080819181FC018081082E000C990BF901F5
:100A10000995F801808389819A81880F991F9E0129
:100A20002F5F3F4F820F931F0496FC0180819181BD
:100A3000FC01158216821782108689819A81880F9F
:100A4000991F9E012F5F3F4F820F931F0496FC0159
:100A50002081318189819A81880F991FAE014F5F72
:100A60005F4F840F951F0496FC0180819181FC01EA
:100A700085819681A781B085C296A11DB11DF9011E
:100A800085839683A783B08789819A8101969A830B
:100A9000898329813A818B819C812817390708F441
:100AA0005DCF0000809112018823E1F310921201C2
:100AB00052CFA1E21A2EAA1BBB1BFD010DC0AA1F1B
:100AC000BB1FEE1FFF1FA217B307E407F50720F0B7
:100AD000A21BB30BE40BF50B661F771F881F991F32
:100AE0001A9469F760957095809590959B01AC017B
:100AF000BD01CF010895EE0FFF1F0024001C0BBEA7
:0C0B00000790F691E02D0994F894FFCFC7
:100B0C0000000002000000006E0000000000010068
:020B1C000000D7
:00000001FF
