:100000000C9446000C9465000C9465000C946500FB
:100010000C9465000C9465000C9465000C946500CC
:100020000C9465000C9465000C9465000C946500BC
:100030000C9465000C9453010C9465000C946500BD
:100040000C9465000C9465000C9465000C9465009C
:100050000C9465000C9465000C9465000C9465008C
:100060000C9465000C9465000C9465000C9465007C
:100070000C9465000C9465000C9465000C9465006C
:100080000C9465000C9465000C94650011241FBE4F
:10009000CFEFD0E4DEBFCDBF11E0A0E0B1E0E2EAF7
:1000A000F8E000E00BBF02C007900D92A231B1074B
:1000B000D9F721E0A2E1B1E001C01D92A632B2075A
:1000C000E1F70E942F030C944F040C940000CF938F
:1000D000DF9300D01F92CDB7DEB789837B836A831D
:1000E00089818A3031F48A819B81BC018DE00E9434
:1000F000670080EC90E0FC018081882F90E08072A6
:100100009927892BB1F386EC90E02981FC012083AB
:1001100080E090E00F900F900F90DF91CF910895C5
:10012000CF93DF9300D01F92CDB7DEB789836A8368
:100130004B838B81882371F08A81282F30E081E006
:1001400090E002C0880F991F2A95E2F7982F8981C5
:10015000892B0EC08A81282F30E081E090E002C018
:10016000880F991F2A95E2F7982F90958981892306
:100170000F900F900F90DF91CF910895CF93DF9361
:1001800000D0CDB7DEB789836A838A81282F30E01B
:1001900081E090E002C0880F991F2A95E2F7982F1E
:1001A000898189230F900F90DF91CF910895CF938C
:1001B000DF9300D000D0CDB7DEB769837A838B831D
:1001C0009C8389819A81AB81BC8180930E0190933D
:1001D0000F01A0931001B093110180910E01909135
:1001E0000F01A0911001B091110180931301909320
:1001F0001401A0931501B093160100000F900F9009
:100200000F900F90DF91CF910895CF93DF93CDB7EB
:10021000DEB781E890E02BE0FC01208388E890E0E5
:100220002DE730E0FC01318320838FE690E022E06F
:10023000FC01208384E890E0FC011182108280910F
:100240000E0190910F01A0911001B09111018093C6
:10025000130190931401A0931501B09316018FE53B
:1002600090E02FE530E0F90120812068FC01208337
:100270000000DF91CF910895CF93DF93CDB7DEB724
:1002800081E890E0FC0110820000DF91CF91089599
:10029000CF93DF93CDB7DEB781E0809312010000EA
:1002A000DF91CF9108951F920F9200905F000F92FF
:1002B000112400905B000F922F933F934F935F9315
:1002C0006F937F938F939F93AF93BF93EF93FF931E
:1002D000CF93DF93CDB7DEB78091130190911401D6
:1002E000A0911501B09116010197A109B109809360
:1002F000130190931401A0931501B09316018091FE
:10030000130190911401A0911501B0911601892B50
:100310008A2B8B2B91F40E94480180910E019091C1
:100320000F01A0911001B0911101809313019093DE
:100330001401A0931501B09316010000DF91CF9135
:10034000FF91EF91BF91AF919F918F917F916F91AD
:100350005F914F913F912F910F9000925B000F9012
:1003600000925F000F901F901895CF93DF93CDB749
:10037000DEB72C970FB6F894DEBF0FBECDBF6D83EE
:100380007E838F83988729873A874B875C878D8107
:100390009E81AF81B88529853A854B855C85BC01F6
:1003A000CD010E942D04DC01CB0189839A83AB83AC
:1003B000BC8389819A81AB81BC81892B8A2B8B2B51
:1003C00029F489859A85AB85BC8511C089859A8574
:1003D000AB85BC858D839E83AF83B88789819A81E5
:1003E000AB81BC8189879A87AB87BC87D0CFBC01A2
:1003F000CD012C960FB6F894DEBF0FBECDBFDF91B6
:10040000CF9108950F931F93CF93DF93CDB7DEB7AE
:1004100008E210E040E064E08FEF0E949000F801F5
:100420008083000086E290E0FC018081809560E09E
:100430000E94BE00882311F081E3D3C086E290E0E1
:10044000FC018081809561E00E94BE00882311F04C
:1004500084E3C7C086E290E0FC018081809562E081
:100460000E94BE00882311F087E3BBC086E290E0C3
:10047000FC018081809563E00E94BE00882311F01A
:100480008AE2AFC008E210E040E065E08FEF0E9432
:100490009000F8018083000086E290E0FC018081FA
:1004A000809560E00E94BE00882311F082E399C02D
:1004B00086E290E0FC018081809561E00E94BE00B0
:1004C000882311F085E38DC086E290E0FC018081F5
:1004D000809562E00E94BE00882311F088E381C00D
:1004E00086E290E0FC018081809563E00E94BE007E
:1004F000882311F080E375C008E210E040E066E078
:100500008FEF0E949000F8018083000086E290E067
:10051000FC018081809560E00E94BE00882311F07C
:1005200083E35FC086E290E0FC018081809561E01A
:100530000E94BE00882311F086E353C086E290E05B
:10054000FC018081809562E00E94BE00882311F04A
:1005500089E347C086E290E0FC018081809563E0FA
:100560000E94BE00882311F083E23BC008E210E045
:1005700040E067E08FEF0E949000F8018083000068
:1005800086E290E0FC018081809560E00E94BE00E0
:10059000882311F081E425C086E290E0FC0180818F
:1005A000809561E00E94BE00882311F082E419C0AA
:1005B00086E290E0FC018081809562E00E94BE00AE
:1005C000882311F083E40DC086E290E0FC01808175
:1005D000809563E00E94BE00882311F084E401C08E
:1005E00080E0DF91CF911F910F910895CF93DF931A
:1005F00000D0CDB7DEB79A8389830E940202809330
:10060000170189819A81892B79F480911701882FAC
:1006100090E0892B19F41A82198205C081E090E0DC
:100620009A838983000003C01A821982000089819D
:100630009A81019721F480E88093180103C01092F9
:100640001801000085E290E020911801FC01208350
:1006500089819A810F900F90DF91CF9108950F9328
:100660001F93CF93DF9300D000D000D0CDB7DEB77B
:1006700084E290E02FEFFC01208385E290E0FC0112
:10068000108287E290E020EFFC01208388E290E076
:100690002FE0FC01208389E191E09E838D8381E03E
:1006A00090E09C838B831092190182E390E0A0E09C
:1006B000B0E080931A0190931B01A0931C01B093AA
:1006C0001D0180911A0190911B01A0911C01B09114
:1006D0001D0180931E0190931F01A0932001B093F0
:1006E000210186EF92E0909323018093220162E33F
:1006F00070E080E090E00E94D7000E9405011A821D
:1007000019829BC089819A81880F991F9E012F5F52
:100710003F4F820F931F0496FC0180819181FC0161
:10072000258136814781508589819A81880F991F5B
:10073000BE016F5F7F4F860F971F0496FC0180817B
:100740009181FC0181819281A381B48128173907AD
:100750004A075B0709F045C089819A81880F991F74
:100760009E012F5F3F4F820F931F0496FC01008173
:10077000118189819A81880F991F9E012F5F3F4FB8
:10078000820F931F0496FC0180819181FC012185D9
:10079000328589819A81880F991FAE014F5F5F4F23
:1007A000840F951F0496FC0180819181FC0180815A
:1007B000082E000C990BF9010995F80180838981B5
:1007C0009A81880F991F9E012F5F3F4F820F931FC1
:1007D0000496FC0180819181FC01158216821782AA
:1007E000108689819A81880F991F9E012F5F3F4F44
:1007F000820F931F0496FC012081318189819A81A7
:10080000880F991FAE014F5F5F4F840F951F0496AD
:10081000FC0180819181FC0185819681A781B08551
:10082000C296A11DB11DF90185839683A783B08768
:1008300089819A8101969A83898329813A818B8162
:100840009C812817390708F45DCF000080911201C0
:100850008823E1F31092120152CFA1E21A2EAA1BB3
:10086000BB1BFD010DC0AA1FBB1FEE1FFF1FA21760
:10087000B307E407F50720F0A21BB30BE40BF50B5D
:10088000661F771F881F991F1A9469F760957095E6
:10089000809590959B01AC01BD01CF010895F8941E
:0208A000FFCF88
:1008A20000000002000000006700000000000100DC
:0208B200000044
:00000001FF
