:100000000C944D000C946C000C946C000C946C00DF
:100010000C946C000C946C000C946C000C946C00B0
:100020000C946C000C946C000C946C000C946C00A0
:100030000C946C000C945A010C946C000C946C00A1
:100040000C946C000C946C000C946C000C946C0080
:100050000C946C000C946C000C946C000C946C0070
:100060000C946C000C946C000C946C000C946C0060
:100070000C946C000C946C000C946C000C946C0050
:100080000C946C000C946C000C946C00E503F5036C
:100090000E04310454049604B90411241FBECFEF9A
:1000A000D0E4DEBFCDBF11E0A0E0B1E0E4E0F9E1D3
:1000B00000E00BBF02C007900D92A038B107D9F73E
:1000C00021E0A0E8B1E001C01D92AA3CB207E1F72F
:1000D0000E9443090C94800C0C940000CF93DF9392
:1000E00000D01F92CDB7DEB789837B836A83898175
:1000F0008A3031F48A819B81BC018DE00E946E00C0
:1001000080EC90E0FC018081882F90E0807299273C
:10011000892BB1F386EC90E02981FC01208380E0FB
:1001200090E00F900F900F90DF91CF910895CF93B3
:10013000DF9300D01F92CDB7DEB789836A834B83EC
:100140008B81882371F08A81282F30E081E090E054
:1001500002C0880F991F2A95E2F7982F8981892B71
:100160000EC08A81282F30E081E090E002C0880F25
:10017000991F2A95E2F7982F9095898189230F90EE
:100180000F900F90DF91CF910895CF93DF9300D020
:10019000CDB7DEB789836A838A81282F30E081E07A
:1001A00090E002C0880F991F2A95E2F7982F898165
:1001B00089230F900F90DF91CF910895CF93DF9314
:1001C00000D000D0CDB7DEB769837A838B839C8360
:1001D00089819A81AB81BC8180930E0190930F013C
:1001E000A0931001B093110180910E0190910F0125
:1001F000A0911001B091110180938101909382012F
:10020000A0938301B093840100000F900F900F9092
:100210000F90DF91CF910895CF93DF93CDB7DEB7E5
:1002200081E890E02BE0FC01208388E890E02DE756
:1002300030E0FC01318320838FE690E022E0FC0176
:10024000208384E890E0FC011182108280910E01ED
:1002500090910F01A0911001B09111018093810143
:1002600090938201A0938301B09384018FE590E085
:100270002FE530E0F90120812068FC012083000097
:10028000DF91CF910895CF93DF93CDB7DEB781E8AB
:1002900090E0FC0110820000DF91CF910895CF9390
:1002A000DF93CDB7DEB781E0809380010000DF915E
:1002B000CF9108951F920F9200905F000F9211242A
:1002C00000905B000F922F933F934F935F936F9338
:1002D0007F938F939F93AF93BF93EF93FF93CF93AE
:1002E000DF93CDB7DEB78091810190918201A0911B
:1002F0008301B09184010197A109B1098093810123
:1003000090938201A0938301B09384018091810135
:1003100090918201A0918301B0918401892B8A2B55
:100320008B2B91F40E944F0180910E0190910F014F
:10033000A0911001B09111018093810190938201ED
:10034000A0938301B09384010000DF91CF91FF91CE
:10035000EF91BF91AF919F918F917F916F915F913D
:100360004F913F912F910F9000925B000F90009260
:100370005F000F901F901895CF93DF93CDB7DEB736
:100380002C970FB6F894DEBF0FBECDBF6D837E8372
:100390008F83988729873A874B875C878D819E81D9
:1003A000AF81B88529853A854B855C85BC01CD0137
:1003B0000E94C10ADC01CB0189839A83AB83BC8391
:1003C00089819A81AB81BC81892B8A2B8B2B29F463
:1003D00089859A85AB85BC8511C089859A85AB8551
:1003E000BC858D839E83AF83B88789819A81AB81D9
:1003F000BC8189879A87AB87BC87D0CFBC01CD01F0
:100400002C960FB6F894DEBF0FBECDBFDF91CF9113
:1004100008950F931F93CF93DF93CDB7DEB708E214
:1004200010E040E064E08FEF0E949700F8018083C5
:10043000000086E290E0FC018081809560E00E94EF
:10044000C500882311F081E3D3C086E290E0FC016F
:100450008081809561E00E94C500882311F084E3CB
:10046000C7C086E290E0FC018081809562E00E9436
:10047000C500882311F087E3BBC086E290E0FC0151
:100480008081809563E00E94C500882311F08AE294
:10049000AFC008E210E040E065E08FEF0E949700F7
:1004A000F8018083000086E290E0FC018081809565
:1004B00060E00E94C500882311F082E399C086E2C3
:1004C00090E0FC018081809561E00E94C500882356
:1004D00011F085E38DC086E290E0FC01808180957B
:1004E00062E00E94C500882311F088E381C086E2A3
:1004F00090E0FC018081809563E00E94C500882324
:1005000011F080E375C008E210E040E066E08FEF94
:100510000E949700F8018083000086E290E0FC01D1
:100520008081809560E00E94C500882311F083E3FC
:100530005FC086E290E0FC018081809561E00E94CE
:10054000C500882311F086E353C086E290E0FC01E9
:100550008081809562E00E94C500882311F089E3C4
:1005600047C086E290E0FC018081809563E00E94B4
:10057000C500882311F083E23BC008E210E040E0B0
:1005800067E08FEF0E949700F8018083000086E209
:1005900090E0FC018081809560E00E94C500882386
:1005A00011F081E425C086E290E0FC018081809515
:1005B00061E00E94C500882311F082E419C086E240
:1005C00090E0FC018081809562E00E94C500882354
:1005D00011F083E40DC086E290E0FC0180818095FB
:1005E00063E00E94C500882311F084E401C080E02C
:1005F000DF91CF911F910F9108950F931F93CF9388
:10060000DF9300D000D0CDB7DEB769837A838B83C8
:100610009C838091920190919301A0919401B0915B
:1006200095019C01AD0169817A818B819C810E9439
:10063000EC0A882309F477C020E030E0A901698141
:100640007A818B819C810E94EC0A882351F481E994
:1006500090E021E930E0F90120812870FC0120833D
:1006600009C081E990E021E930E0F90120812360AF
:10067000FC01208328E539E344E75FE369817A815F
:100680008B819C810E94EC0A882344F488E990E0E5
:100690002FEF3FEFFC013183208334C020E034E2B0
:1006A00044EF56E469817A818B819C810E940E0C13
:1006B000181634F488E990E0FC011182108222C0FF
:1006C00008E910E020E030E040E053E469817A81FD
:1006D0008B819C810E94130CDC01CB019C01AD013C
:1006E00060E074E284EF9AE40E94F10ADC01CB013D
:1006F000BC01CD010E94630BDC01CB010197F80125
:100700009183808384E990E0FC01118210828981C9
:100710009A81AB81BC818093920190939301A093C5
:100720009401B093950100000F900F900F900F90DF
:10073000DF91CF911F910F910895CF93DF93CDB7A4
:10074000DEB780E990E020E4FC01208381E990E0BD
:100750002BE0FC01208360E070E0CB010E94FD02F1
:100760000000DF91CF910895CF93DF93CDB7DEB72F
:1007700080E990E0FC01108281E990E0FC011082A8
:100780000000DF91CF910895CF93DF9300D01F92A7
:10079000CDB7DEB79B838A830E940902898380914B
:1007A000C4019091C501CC01A0E0B0E040E050E070
:1007B00026E030E0841B950B2817390708F4E0C0C9
:1007C0008A5B9F4FFC010C94E30A8981882F90E09B
:1007D000839739F481E090E09093C5018093C40140
:1007E00003C01B821A820000D0C08981282F30E00C
:1007F00080911201082E000C990B2817390739F443
:1008000082E090E09093C5018093C401BEC081E076
:1008100090E09093C5018093C401B7C08981282FCF
:1008200030E080911301082E000C990B281739072E
:1008300039F483E090E09093C5018093C401A5C092
:100840008981833239F481E090E09093C5018093EF
:10085000C4019BC082E090E09093C5018093C401E5
:1008600094C08981282F30E080911401082E000C5B
:10087000990B2817390739F484E090E09093C5016B
:100880008093C40182C08981833239F481E090E091
:100890009093C5018093C40178C083E090E0909369
:1008A000C5018093C40171C08981282F30E08091F7
:1008B0001501082E000C990B2817390769F480914F
:1008C000860190918701892B39F485E090E090931F
:1008D000C5018093C40129C08981282F30E080910F
:1008E0001501082E000C990B2817390769F480911F
:1008F000860190918701019739F486E090E090930A
:10090000C5018093C40111C08981833239F481E02B
:1009100090E09093C5018093C40137C084E090E0DB
:100920009093C5018093C40130C02FC08981282FC6
:1009300030E080911601082E000C990B281739071A
:1009400039F486E090E09093C5018093C4011DC006
:100950008981833239F481E090E09093C5018093DE
:10096000C40113C085E090E09093C5018093C40159
:100970000CC086E090E09093C5018093C40105C04F
:100980001092C5011092C40100008091C4019091A1
:10099000C501069721F481E08093850102C0109281
:1009A00085018A819B810F900F900F90DF91CF91ED
:1009B0000895CF93DF9300D0CDB7DEB79A838983B4
:1009C0008091C8019091C9018130910569F0813011
:1009D000910518F00297C9F01FC081E090E0909354
:1009E000C9018093C8011EC083E290E0FC018081B0
:1009F0008823BCF01092C5011092C40182E090E0FF
:100A00009093C9018093C8010CC081E090E090935D
:100A1000C9018093C80106C01092C9011092C80193
:100A200001C000008091C8019091C901029709F0AE
:100A300003C010928501000085E290E020918501BD
:100A4000FC01208389819A810F900F90DF91CF91D3
:100A50000895CF93DF9300D0CDB7DEB79A83898313
:100A600089819A818130910551F082309105B9F0E8
:100A7000892B29F581E090E09A83898323C080E265
:100A800090E0FC01808188232CF082E090E09A8342
:100A9000898318C081E090E09A83898313C0809194
:100AA0008A0190918B010C972CF482E090E09A835C
:100AB000898308C081E090E09A83898303C01A8209
:100AC0001982000089819A81029719F580918A0123
:100AD00090918B010C973CF580918A0190918B014C
:100AE000880F991F880F991F895E9E4FFC01808196
:100AF0009181A281B381BC01CD010E94FD02809150
:100B00008A0190918B01019690938B0180938A01C9
:100B10000AC060E070E0CB010E94FD0210928B01E0
:100B200010928A0101C0000089819A810F900F9074
:100B3000DF91CF910895CF93DF9300D01F92CDB76F
:100B4000DEB79B838A830E94090289838091C60154
:100B50009091C7018230910509F4FEC08330910560
:100B600028F4009779F0019731F182C38430910520
:100B700009F494C28430910508F4BFC1059709F4C3
:100B80005EC376C3109291011092900189818A32DE
:100B900069F483E290E0FC01808188233CF081E0ED
:100BA00090E09093C7018093C60165C31092C7017E
:100BB0001092C60160C380919001909191010196BD
:100BC0009093910180939001809190019091910177
:100BD00044972CF01092C7011092C6014CC3898132
:100BE000813351F481E380938C0182E090E0909313
:100BF000C7018093C6013FC38981823351F482E3E8
:100C000080938C0182E090E09093C7018093C601AD
:100C100032C38981833351F483E380938C0182E072
:100C200090E09093C7018093C60125C389818433E6
:100C300051F484E380938C0182E090E09093C701AB
:100C40008093C60118C38981853351F485E380936D
:100C50008C0182E090E09093C7018093C6010BC3A2
:100C60008981863351F486E380938C0182E090E0A1
:100C70009093C7018093C601FEC28981873351F4E6
:100C800087E380938C0182E090E09093C70180938A
:100C9000C601F1C28981883351F488E380938C01C5
:100CA00082E090E09093C7018093C601E4C28981FD
:100CB000893351F489E380938C0182E090E0909332
:100CC000C7018093C601D7C28981803351F480E384
:100CD00080938C0182E090E09093C7018093C601DD
:100CE000CAC28981813451F481E480938C0182E00D
:100CF00090E09093C7018093C601BDC28981823480
:100D000051F482E480938C0182E090E09093C701DB
:100D10008093C601B0C28981833451F483E4809307
:100D20008C0182E090E09093C7018093C601A3C23A
:100D30008981843451F484E480938C0182E090E0D2
:100D40009093C7018093C60196C281E090E0909392
:100D5000C7018093C6018FC280919001909191014B
:100D600001969093910180939001809190019091D0
:100D7000910144972CF01092C7011092C6017BC2DA
:100D80008981813351F481E380938D0183E090E088
:100D90009093C7018093C6016EC28981823351F45A
:100DA00082E380938D0183E090E09093C70180936C
:100DB000C60161C28981833351F483E380938D013D
:100DC00083E090E09093C7018093C60154C289816B
:100DD000843351F484E380938D0183E090E0909319
:100DE000C7018093C60147C28981853351F485E3E9
:100DF00080938D0183E090E09093C7018093C601BA
:100E00003AC28981863351F486E380938D0183E071
:100E100090E09093C7018093C6012DC289818733EA
:100E200051F487E380938D0183E090E09093C701B4
:100E30008093C60120C28981883351F488E380936E
:100E40008D0183E090E09093C7018093C60113C2A7
:100E50008981893351F489E380938D0183E090E0A7
:100E60009093C7018093C60106C28981803351F4F3
:100E700080E380938D0183E090E09093C70180939D
:100E8000C601F9C18981813451F481E480938D01D7
:100E900083E090E09093C7018093C601ECC1898103
:100EA000823451F482E480938D0183E090E090934A
:100EB000C7018093C601DFC18981833451F483E483
:100EC00080938D0183E090E09093C7018093C601E9
:100ED000D2C18981843451F484E480938D0183E00C
:100EE00090E09093C7018093C601C5C182E090E075
:100EF0009093C7018093C601BEC1809190019091EB
:100F000091010196909391018093900180919001BD
:100F10009091910144972CF01092C7011092C60154
:100F2000AAC18981813351F481E380938E0184E0E9
:100F300090E09093C7018093C6019DC1898182335F
:100F400051F482E380938E0184E090E09093C70196
:100F50008093C60190C18981833351F483E38093E8
:100F60008E0184E090E09093C7018093C60183C115
:100F70008981843351F484E380938E0184E090E08E
:100F80009093C7018093C60176C18981853351F45E
:100F900085E380938E0184E090E09093C701809375
:100FA000C60169C18981863351F486E380938E013D
:100FB00084E090E09093C7018093C6015CC1898171
:100FC000873351F487E380938E0184E090E090931F
:100FD000C7018093C6014FC18981883351F488E3EA
:100FE00080938E0184E090E09093C7018093C601C6
:100FF00042C18981893351F489E380938E0184E071
:1010000090E09093C7018093C60135C189818033F8
:1010100051F480E380938E0184E090E09093C701C7
:101020008093C60128C18981813451F481E4809381
:101030008E0184E090E09093C7018093C6011BC1AC
:101040008981823451F482E480938E0184E090E0BF
:101050009093C7018093C6010EC18981833451F4F6
:1010600083E480938E0184E090E09093C7018093A5
:10107000C60101C18981843451F484E480938E01D6
:1010800084E090E09093C7018093C601F4C083E0B0
:1010900090E09093C7018093C601EDC080919001CC
:1010A000909191010196909391018093900180918C
:1010B00090019091910144972CF01092C7011092E9
:1010C000C601D9C08981813351F481E380938F01B6
:1010D00085E090E09093C7018093C601CCC08981E0
:1010E000823351F482E380938F0185E090E0909306
:1010F000C7018093C601BFC08981833351F483E364
:1011000080938F0185E090E09093C7018093C601A2
:10111000B2C08981843351F484E380938F0185E0E8
:1011200090E09093C7018093C601A5C08981853363
:1011300051F485E380938F0185E090E09093C7019F
:101140008093C60198C08981863351F486E38093E9
:101150008F0185E090E09093C7018093C6018BC01A
:101160008981873351F487E380938F0185E090E094
:101170009093C7018093C6017EC08981883351F462
:1011800088E380938F0185E090E09093C70180937E
:10119000C60171C08981893351F489E380938F013D
:1011A00085E090E09093C7018093C60164C0898177
:1011B000803351F480E380938F0185E090E0909339
:1011C000C7018093C60157C08981813451F481E4FD
:1011D00080938F0185E090E09093C7018093C601D2
:1011E0004AC08981823451F482E480938F0185E082
:1011F00090E09093C7018093C6013DC089818334FC
:1012000051F483E480938F0185E090E09093C701CF
:101210008093C60130C08981843451F484E4809382
:101220008F0185E090E09093C7018093C60123C0B1
:1012300084E090E09093C7018093C6011CC0809128
:101240008C018093120180918D0180931301809114
:101250008E018093140180918F018093150181E0AC
:1012600090E090938701809386011B821A8203C0CD
:101270001B821A8200008A819B810F900F900F9031
:10128000DF91CF9108950F931F93CF93DF93CDB745
:10129000DEB72C970FB6F894DEBF0FBECDBF81E24C
:1012A00090E0FC01108282E290E02FEFFC012083AD
:1012B00084E290E02FE7FC01208385E290E020E8C3
:1012C000FC01208387E290E020EFFC01208388E28C
:1012D00090E02FE0FC01208388E0E7E7F1E0DE0109
:1012E000159601900D928A95E1F784E090E09C8339
:1012F0008B831092960182E390E0A0E0B0E08093AF
:10130000970190939801A0939901B0939A018091CD
:10131000970190919801A0919901B0919A018093C1
:101320009B0190939C01A0939D01B0939E0184EC3E
:1013300093E09093A00180939F011092A10182E31A
:1013400090E0A0E0B0E08093A2019093A301A0936D
:10135000A401B093A5018091A2019091A301A09155
:10136000A401B091A5018093A6019093A701A09339
:10137000A801B093A90189ED94E09093AB0180930B
:10138000AA011092AC0188EC90E0A0E0B0E080935C
:10139000AD019093AE01A093AF01B093B0018091E5
:1013A000AD019091AE01A091AF01B091B0018093D9
:1013B000B1019093B201A093B301B093B40189E25B
:1013C00095E09093B6018093B5011092B70188EC37
:1013D00090E0A0E0B0E08093B8019093B901A093B1
:1013E000BA01B093BB018091B8019091B901A0916D
:1013F000BA01B091BB018093BC019093BD01A09351
:10140000BE01B093BF018BE995E09093C101809339
:10141000C00162E370E080E090E00E94DE000E9484
:101420000C010E949D031A8219829BC089819A81B6
:10143000880F991F9E012F5F3F4F820F931F0496C5
:10144000FC0180819181FC01258136814781508595
:1014500089819A81880F991FBE016F5F7F4F860F28
:10146000971F0496FC0180819181FC01818192810A
:10147000A381B481281739074A075B0709F045C0E3
:1014800089819A81880F991F9E012F5F3F4F820F9C
:10149000931F0496FC010081118189819A81880F34
:1014A000991F9E012F5F3F4F820F931F0496FC01EF
:1014B00080819181FC012185328589819A81880F03
:1014C000991FAE014F5F5F4F840F951F0496FC017B
:1014D00080819181FC018081082E000C990BF9011B
:1014E0000995F801808389819A81880F991F9E014F
:1014F0002F5F3F4F820F931F0496FC0180819181E3
:10150000FC01158216821782108689819A81880FC4
:10151000991F9E012F5F3F4F820F931F0496FC017E
:101520002081318189819A81880F991FAE014F5F97
:101530005F4F840F951F0496FC0180819181FC010F
:1015400085819681A781B085C296A11DB11DF90143
:1015500085839683A783B08789819A8101969A8330
:10156000898329813A818B819C812817390708F466
:101570005DCF0000809180018823E1F3109280010B
:1015800052CFA1E21A2EAA1BBB1BFD010DC0AA1F40
:10159000BB1FEE1FFF1FA217B307E407F50720F0DC
:1015A000A21BB30BE40BF50B661F771F881F991F57
:1015B0001A9469F760957095809590959B01AC01A0
:1015C000BD01CF010895EE0FFF1F0024001C0BBECC
:1015D0000790F691E02D09940E94990B08F481E0A0
:1015E00008950E94050B0C94D40B0E94CD0B58F06B
:1015F0000E94C60B40F029F45F3F29F00C94BD0B0C
:1016000051110C94080C0C94C30B0E94E50B68F369
:101610009923B1F3552391F3951B550BBB27AA27AB
:1016200062177307840738F09F5F5F4F220F331FE5
:10163000441FAA1FA9F335D00E2E3AF0E0E832D0AD
:1016400091505040E695001CCAF72BD0FE2F29D0B0
:10165000660F771F881FBB1F261737074807AB0782
:10166000B0E809F0BB0B802DBF01FF2793585F4FF7
:101670003AF09E3F510578F00C94BD0B0C94080C89
:101680005F3FE4F3983ED4F3869577956795B795D9
:10169000F7959F5FC9F7880F911D9695879597F9E4
:1016A0000895E1E0660F771F881FBB1F621773075D
:1016B0008407BA0720F0621B730B840BBA0BEE1F72
:1016C00088F7E09508950E946A0B6894B1110C9414
:1016D000080C08950E94ED0B88F09F5798F0B92FE1
:1016E0009927B751B0F0E1F0660F771F881F991F57
:1016F0001AF0BA95C9F714C0B13091F00E94070CE6
:10170000B1E008950C94070C672F782F8827B85FF5
:1017100039F0B93FCCF3869577956795B395D9F7AE
:101720003EF490958095709561957F4F8F4F9F4FB8
:101730000895990F0008550FAA0BE0E8FEEF161662
:101740001706E807F907C0F012161306E407F507B5
:1017500098F0621B730B840B950B39F40A2661F029
:10176000232B242B252B21F408950A2609F4A140CC
:10177000A6958FEF811D811D089597F99F6780E8D9
:1017800070E060E008959FEF80EC089500240A94D3
:101790001616170618060906089500240A9412164C
:1017A0001306140605060895092E0394000C11F47F
:1017B000882352F0BB0F40F4BF2B11F460FF04C02C
:1017C0006F5F7F4F8F4F9F4F089557FD9058440F85
:1017D000551F59F05F3F71F04795880F97FB991F90
:1017E00061F09F3F79F0879508951216130614064D
:1017F000551FF2CF4695F1DF08C0161617061806DA
:10180000991FF1CF86957105610508940895E894B4
:10181000BB2766277727CB0197F908950E94990B7C
:1018200008F48FEF08950E94260C0C94D40B0E94AC
:10183000C60B38F00E94CD0B20F0952311F00C94CC
:10184000BD0B0C94C30B11240C94080C0E94E50BE7
:1018500070F3959FC1F3950F50E0551F629FF00103
:10186000729FBB27F00DB11D639FAA27F00DB11D1C
:10187000AA1F649F6627B00DA11D661F829F2227A5
:10188000B00DA11D621F739FB00DA11D621F839F2C
:10189000A00D611D221F749F3327A00D611D231F02
:1018A000849F600D211D822F762F6A2F11249F5750
:1018B00050409AF0F1F088234AF0EE0FFF1FBB1F53
:1018C000661F771F881F91505040A9F79E3F510512
:1018D00080F00C94BD0B0C94080C5F3FE4F3983E31
:1018E000D4F3869577956795B795F795E7959F5FBC
:1018F000C1F7FE2B880F911D9695879597F908954E
:04190000F894FFCF89
:1019040000000002000000006E0000000000010062
:10191400000031323334350000C44300000000A419
:10192400D0A44300000000A4F0F643A4D0A44300D4
:10193400000000A4D0A44300000000A4D0A44300ED
:101944000000000080A4430000104100003041006A
:101954000090410000A0410000B0410000C04100DF
:1019640000D0410000E04100000C4200001442009D
:10197400002042000000009601A101AC01B7010063
:00000001FF
